S02100006261726F6D657465725F74656D705F6932635F424D503138302E73726563F9
S11300000C94E8000C9405010C9405010C94050172
S11300100C9405010C9405010C9405010C94050144
S11300200C9405010C9405010C9405010C947405C1
S11300300C9405010C9405010C9405010C94050124
S11300400C9405010C9405010C9405010C94050114
S11300500C94050107634236B79BD8A71A39685632
S113006018AEBAAB558C1D3CB7CC5763BD6DEDFDD6
S1130070753EF6177231BF000000803F0800000093
S1130080BE922449123EABAAAA2ABECDCCCC4C3E89
S113009000000080BEABAAAAAA3E00000000BF0078
S11300A00000803F0000000000084178D3BB438774
S11300B0D1133D190E3CC3BD4282AD2B3E68EC8288
S11300C076BED98FE1A93E4C80EFFFBE01C4FF7F0D
S11300D03F000000000000407A10F35A00A0724E66
S11300E018090010A5D4E80000E87648170000E4D9
S11300F00B54020000CA9A3B000000E1F505000021
S113010080969800000040420F000000A086010085
S11301100000102700000000E80300000000640055
S1130120000000000A0000000000010000000000C0
S11301302C76D888DC674F0823DFC1DFAE59E1B1E4
S1130140B796E5E3E453C63AE651997696E8E6C2F3
S11301508426EB898C9B62ED407C6FFCEFBC9C9FFA
S113016040F2BAA56FA5F490055A2AF75C936B6C1C
S1130170F9676DC11BFCE0E40D47FEF520E6B50010
S1130180D0ED902E0300943577050080841E08007E
S113019000204E0A000000C80C333333330F986E2E
S11301A012831141EF8D2114893BE65516CFFEE6EB
S11301B0DB18D1844B381BF77C1D901DA4BBE424B1
S11301C0203284725E228100C9F124ECA1E53D272E
S11301D011241FBECFE5D8E0DEBFCDBF10E0A0E6FE
S11301E0B0E0EAEDF8E102C005900D92AE37B10738
S11301F0D9F721E0AEE7B0E001C01D92AD31B207FE
S1130200E1F70E94C2050C946B0C0C94000088B3B7
S1130210806888BB00C088B38F7788BB0895CF936C
S1130220C82F662321F088B3806288BB03C088B3DB
S11302308F7D88BB88B38F7B88BB84B3846084BB89
S113024084B3886084BB84B3806184BB84B38062DC
S113025084BB85B38F7D85BB85B38F7E85BB85B31A
S1130260877F85BB85B38B7F85BBCC231CF485B38B
S1130270806285BBC6FF03C085B3806185BBC5FFB3
S113028003C085B3886085BBC4FF03C085B38460A5
S113029085BB0E94070185B38F7D85BB85B38F7EA7
S11302A085BB85B3877F85BB85B38B7F85BBC3FF48
S11302B003C085B3806285BBC2FF03C085B3806180
S11302C085BBC1FF03C085B3886085BBC0FF03C085
S11302D085B3846085BB0E94070185B3846085BBB8
S11302E085B3886085BB85B3806185BB85B3806237
S11302F085BBCF910895882321F088B3806288BBA1
S113030003C088B38F7D88BB88B3806488BB84B303
S11303108B7F84BB84B3877F84BB84B38F7E84BB91
S113032084B38F7D84BB88B3806888BB00C09A99EE
S113033002C080E001C080E19B9980629C99806446
S11303409D99806898B39F7798BB00C098B39068D4
S113035098BB00C09A9981609B9982609C99846043
S11303609D99886098B39F7798BB089580E00E9418
S11303707B018823DCF382E090E00197F1F780E0D1
S11303800E947B010895BC018AB188698AB980B54D
S1130390866880BD072E000C880B990B0E946407A9
S11303A020E030E040E851E40E94F0079B01AC01FA
S11303B060E074E284E79BE40E94C10620E030E040
S11303C040E85FE30E9454060E94330769B9089528
S11303D05D9BFECF8CB90895EF92FF920F931F930C
S11303E0CF93DF938C01C0E0D0E00FC00E94E801FE
S11303F0F80101900020E9F73197E01BF10BEE16AC
S1130400FF0611F4C0E0D0E021967E01F801EC0F64
S1130410FD1F80818111EACFDF91CF911F910F9150
S1130420FF90EF900895CF93C82F0E94B60160E02B
S11304308C2F0E940F01CF910895611104C0805840
S11304400E941302089580540E941302089581E0CB
S11304500E9413020895CF93C82F0E94B601CA3098
S113046049F4803410F480E401C080E080580E9494
S1130470130204C061E08C2F0E940F01CF910895F4
S1130480CF93DF93FC0103C00E942B02FE01EF0116
S1130490219680818111F8CFDF91CF910895CF9378
S11304A0DF93EA010E941D02CE010E944002DF9107
S11304B0CF9108951F93CF93DF93182F87B3806252
S11304C087BB87B3806487BB87B3806887BB84B3EB
S11304D0846084BB84B3886084BB84B3806184BB40
S11304E084B3806284BB80E89EE30197F1F785B30F
S11304F0886085BB85B3846085BB0E94070180E862
S113050093E10197F1F70E940701C0E4D0E0CE0126
S11305100197F1F70E940701CE010197F1F785B326
S11305208B7F85BB0E9407012197F1F788E20E9427
S1130530130288E00E9413020E94270286E00E94B0
S11305401302812F0E941302DF91CF911F9108950E
S113055011B888E480B916BE089584EA86BF06B649
S113056007FEFDCF089583B984E886BF06B607FE6B
S1130570FDCF089520E4829FC0011124846886BFC2
S113058006B607FEFDCF83B1089584E986BF8FE3E5
S11305909CE90197F1F700C0000008950E94A802A9
S11305A088E991E0909391008093900088EB9FEF0D
S11305B09093ED008093EC0081ED97EC9093EF0025
S11305C08093EE0085EE9FE79093DF008093DE003A
S11305D085EF9FE79093BB008093BA0081E79AE58B
S11305E090939300809392008EE298E19093160189
S11305F08093150184E090E09093F1008093F000E3
S113060080E090E89093E3008093E20089EF9DED11
S1130610909318018093170184E39BE090938B00DF
S113062080938A0083E39BEBACECBBE38093DA001A
S11306309093DB00A093DC00B093DD0080E092EEA9
S1130640A4EBB6E480938C0090938D00A0938E006D
S1130650B0938F0082E598E3AEE2B4EC8093E400BB
S11306609093E500A093E600B093E70086E696E653
S1130670AFE8B1E48093D6009093D700A093D8005C
S1130680B093D90080E895E7ACE8B2EC8093FC0025
S11306909093FD00A093FE00B093FF0089EC96EFC9
S11306A0A2E8BAE38093980090939900A0939A00EB
S11306B0B0939B0080E89FE1A7E1BEE38093B6007E
S11306C09093B700A093B800B093B90080E090E095
S11306D0ACECB3E48093CE009093CF00A093D00011
S11306E0B093D10080E090E0A4EBBFEB8093F800DE
S11306F09093F900A093FA00B093FB0080E090E09F
S1130700A8E4BBE38093C6009093C700A093C800FD
S1130710B093C90089EC96EFA2E0B2E480939C0008
S113072090939D00A0939E00B0939F0084E296EB6B
S1130730AFE8BDEB8093190190931A01A0931B01BC
S1130740B0931C018CE59FE9AAE1B9E38093BE0054
S11307509093BF00A093C000B093C1008CEE91E5CC
S1130760A7E1B0E48093860090938700A09388006B
S1130770B093890080E394E3AEE7BFE38093D200B3
S11307809093D300A093D400B093D50080E097E574
S1130790A4E9B6E38093940090939500A093960007
S11307A0B09397000895CF92DF92EF92FF92CF9388
S11307B0DF930E94AD028EEE0E94B30284EF0E948A
S11307C0B3028EE20E94B3020E94C5028FE39CE949
S11307D00197F1F700C000000E94AD028EEE0E9466
S11307E0B30286EF0E94B3028FE39CE90197F1F70D
S11307F000C000000E94AD028FEE0E94B30281E0AF
S11308000E94BA02CCEBD0E0888380E00E94BA0256
S113081089830E94C502688170E0762F66278981EA
S1130820682B7093F3006093F20080E090E00E94E4
S1130830620720918C0030918D0040918E00509180
S11308408F000E9454062091DA003091DB00409121
S1130850DC005091DD000E94F0076B017C01609385
S1130860E8007093E9008093EA009093EB002091F4
S1130870D6003091D7004091D8005091D9000E9401
S113088055069B01AC016091E4007091E5008091F4
S1130890E6009091E7000E94C1069B01AC01C701EC
S11308A0B6010E9455066093C2007093C300809302
S11308B0C4009093C500DF91CF91FF90EF90DF903B
S11308C0CF9008954F925F926F927F928F929F92F2
S11308D0AF92BF92CF92DF92EF92FF92CF93DF93CA
S11308E00E94AD028EEE0E94B30284EF0E94B30216
S11308F084E30E94B3022FEF80E792E0215080400E
S11309009040E1F700C000000E94C5028FE39CE91B
S11309100197F1F700C000000E94AD028EEE0E9424
S1130920B30286EF0E94B3028FE39CE90197F1F7CB
S113093000C000000E94AD028FEE0E94B30281E06D
S11309400E94BA02CCEBD0E0888381E00E94BA0214
S1130950898380E00E94BA028A830E94C50268816A
S113096070E0762F66278981EB01C82BD093E100D4
S1130970C093E0006091CA007091CB008091CC00DC
S11309809091CD0020E030E048EC51E40E94540600
S11309906B017C0120E030E040E050E40E945D08FF
S11309A02B013C012091C6003091C7004091C80042
S11309B05091C9000E94F0074B015C012091F8009E
S11309C03091F9004091FA005091FB00C701B60143
S11309D00E94F0079B01AC01C501B4010E945506B9
S11309E02091CE003091CF004091D0005091D100A1
S11309F00E9455064B015C012091BE003091BF005E
S1130A004091C0005091C100C301B2010E94F0079F
S1130A102B013C012091190130911A0140911B01D5
S1130A2050911C01C701B6010E94F0079B01AC0163
S1130A30C301B2010E94550620919C0030919D0093
S1130A4040919E0050919F000E9455066B017C01CD
S1130A50BE0180E090E00E946207A50194010E941B
S1130A605406A70196010E94C1066B017C0120E097
S1130A7030E040E050E40E945D0820919400309101
S1130A80950040919600509197000E94F0074B0109
S1130A905C012091D2003091D3004091D400509158
S1130AA0D500C701B6010E94F0079B01AC01C50146
S1130AB0B4010E9455062091860030918700409130
S1130AC08800509189000E945506DF91CF91FF90D4
S1130AD0EF90DF90CF90BF90AF909F908F907F90DA
S1130AE06F905F904F9008951F920F920FB60F92E0
S1130AF011242F938F939F93809180009091810074
S1130B00883E934051F481E090E090938500809377
S1130B108400109281001092800080917E00909158
S1130B207F00843F914051F481E090E090938300F2
S1130B308093820010927F0010927E0080917E004C
S1130B4090917F00019690937F0080937E00809126
S1130B5080009091810001969093810080938000A1
S1130B6080EF82BF9F918F912F910F900FBE0F90B6
S1130B701F90189585E083BF80EF82BF89B781609D
S1130B8089BF089587B3816087BB87B3826087BBC1
S1130B908CE00E945A0280E09BE40E94C3010E9400
S1130BA0CE020E94BA0578948091840090918500C9
S1130BB00197D9F588B3816088BB88B38D7F88BBE2
S1130BC00E94270240E650E060E080E00E944F026D
S1130BD06091CA007091CB008091CC009091CD00BF
S1130BE001E011E021E030E042E050E00E94E2093F
S1130BF0A80160E08AE00E944F024AE650E061E00A
S1130C0080E00E944F0221E030E042E050E0C70162
S1130C10B6010E94E209A80161E08AE00E944F0245
S1130C201092850010928400BFCF80918200909131
S1130C308300019709F0B8CF0E94D3036093CA00E0
S1130C407093CB008093CC009093CD0001E011E031
S1130C5022E030E043E050E00E94E209C8010E9433
S1130C60EC0184E790E00E94EC010E9462046B01B5
S1130C707C0122E030E045E050E00E94E209C80136
S1130C800E94EC0189E790E00E94EC018DE00E9453
S1130C90E80188B38E7F88BB88B3826088BB1092DA
S1130CA083001092820080CF5058BB27AA270E944D
S1130CB06C060C94B6070E94A80738F00E94AF0790
S1130CC020F039F49F3F19F426F40C94A5070EF490
S1130CD0E095E7FB0C949F07E92F0E94C70758F3A0
S1130CE0BA17620773078407950720F079F4A6F50D
S1130CF00C94E9070EF4E0950B2EBA2FA02D0B01EE
S1130D00B90190010C01CA01A0011124FF27591B4C
S1130D1099F0593F50F4503E68F11A16F040A22F52
S1130D20232F342F4427585FF3CF469537952795C3
S1130D30A795F0405395C9F77EF41F16BA0B620BC2
S1130D40730B840BBAF09150A1F0FF0FBB1F661F09
S1130D50771F881FC2F70EC0BA0F621F731F841F4C
S1130D6048F4879577956795B795F7959E3F08F072
S1130D70B0CF9395880F08F09927EE0F9795879534
S1130D8008950E94D5060C94B6070E94AF0758F048
S1130D900E94A80740F029F45F3F29F00C949F07B4
S1130DA051110C94EA070C94A5070E94C70768F335
S1130DB09923B1F3552391F3951B550BBB27AA2710
S1130DC062177307840738F09F5F5F4F220F331F4A
S1130DD0441FAA1FA9F335D00E2E3AF0E0E832D012
S1130DE091505040E695001CCAF72BD0FE2F29D015
S1130DF0660F771F881FBB1F261737074807AB07E7
S1130E00B0E809F0BB0B802DBF01FF2793585F4F5B
S1130E103AF09E3F510578F00C949F070C94EA0732
S1130E205F3FE4F3983ED4F3869577956795B7953D
S1130E30F7959F5FC9F7880F911D9695879597F948
S1130E400895E1E0660F771F881FBB1F62177307C1
S1130E508407BA0720F0621B730B840BBA0BEE1FD6
S1130E6088F7E09508950E94CF0788F09F5798F07F
S1130E70B92F9927B751B0F0E1F0660F771F881F9B
S1130E80991F1AF0BA95C9F714C0B13091F00E94B5
S1130E90E907B1E008950C94E907672F782F8827B4
S1130EA0B85F39F0B93FCCF3869577956795B395DC
S1130EB0D9F73EF490958095709561957F4F8F4F4B
S1130EC09F4F0895E89409C097FB3EF49095809550
S1130ED0709561957F4F8F4F9F4F9923A9F0F92FFC
S1130EE096E9BB279395F695879577956795B7957A
S1130EF0F111F8CFFAF4BB0F11F460FF1BC06F5F60
S1130F007F4F8F4F9F4F16C0882311F096E911C071
S1130F10772321F09EE8872F762F05C0662371F092
S1130F2096E8862F70E060E02AF09A95660F771FA6
S1130F30881FDAF7880F9695879597F9089597F99A
S1130F409F6780E870E060E008959FEF80EC08956B
S1130F5000240A9416161706180609060895002494
S1130F600A9412161306140605060895092E03940E
S1130F70000C11F4882352F0BB0F40F4BF2B11F482
S1130F8060FF04C06F5F7F4F8F4F9F4F089557FDE1
S1130F909058440F551F59F05F3F71F04795880FE3
S1130FA097FB991F61F09F3F79F08795089512167A
S1130FB013061406551FF2CF4695F1DF08C0161626
S1130FC017061806991FF1CF8695710561050894D7
S1130FD00895E894BB2766277727CB0197F90895EE
S1130FE00E9403080C94B6070E94A80738F00E94D8
S1130FF0AF0720F0952311F00C949F070C94A507DC
S113100011240C94EA070E94C70770F3959FC1F35B
S1131010950F50E0551F629FF001729FBB27F00DA2
S1131020B11D639FAA27F00DB11DAA1F649F6627F7
S1131030B00DA11D661F829F2227B00DA11D621F46
S1131040739FB00DA11D621F839FA00D611D221F00
S1131050749F3327A00D611D231F849F600D211DE4
S1131060822F762F6A2F11249F5750409AF0F1F067
S113107088234AF0EE0FFF1FBB1F661F771F881FD0
S113108091505040A9F79E3F510580F00C949F0762
S11310900C94EA075F3FE4F3983ED4F38695779582
S11310A06795B795F795E7959F5FC1F7FE2B880F76
S11310B0911D9695879597F90895FA01EE0FFF1FF4
S11310C0309621053105A1F16115710561F480386F
S11310D0BFE39B0749F168949038810561F080383B
S11310E0BFEF9B0741F099234AF5FF3FE105310526
S11310F0210519F1E8940894E795D901AA2329F464
S1131100AB2FBE2FF85FD0F310C0FF5F70F4A6952D
S1131110E0F7F73950F019F0FF3A38F49F779F93CE
S11311200DD00F9007FC9058089546F00C94A50735
S113113060E070E080E89FE308954FE79F775F9356
S11311404F933F932F930E9458092F913F914F91B2
S11311505F910E94F0070C94B50829F416F00C94E2
S11311609F070C94E9070C94A5070E94CF07A8F3E6
S11311709638A0F707F80F92E8942BE33AEA48EB85
S11311805FE70E9406080F920F920F924DB75EB769
S11311900F920E94A009E4E5F0E00E94E7084F9155
S11311A05F91EF91FF91E595EE1FFF1F49F0FE5708
S11311B0E0684427EE0F441FFA95E1F74195550B7B
S11311C00E941A090F9007FE0C940E090895DF93EC
S11311D0CF931F930F93FF92EF92DF927B018C01C9
S11311E0689406C0DA2EEF010E940308FE01E89419
S11311F0A5912591359145915591A6F3EF010E9452
S11312006C06FE019701A801DA9469F7DF90EF906C
S1131210FF900F911F91CF91DF9108959B01AC0135
S113122060E070E080E89FE30C94C1060C949F0793
S11312300C94D4090E94CF07D8F39923C9F3940FCF
S1131240511DA3F39150504094F059F0882332F08B
S1131250660F771F881F91505040C1F79E3F51057C
S11312602CF7880F911D9695879597F908955F3F00
S1131270ACF0983E9CF0BB27869577956795B7951B
S113128008F4B1609395C1F7BB0F58F711F460FFF0
S1131290E8CF6F5F7F4F8F4F9F4FE3CF0C94EA07E8
S11312A016F00C94D4090C94A50768940C949F0729
S11312B00E94CF07A8F39923C1F3AEF3DF93CF9332
S11312C01F930F93FF92C92FDD2788232AF02197BC
S11312D0660F771F881FDAF720E030E040E85FEB05
S11312E09FE3883920F0803E38F021968F770E9462
S11312F05506ECE7F0E004C00E945506E9EAF0E088
S11313000E94E7088B01BE01EC01FB2E6F577109A7
S11313107595771F880B990B0E94640728E132E7C3
S113132041E35FE30E940308AF2D9801AE01FF90F3
S11313300F911F91CF91DF910E946C060C94B60718
S1131340FA01DC01AA0FBB1F9B01AC01BF5728F4B3
S1131350222733274427507820C0B75190F4AB2F6D
S11313600024469537952795011CA395D2F30020B8
S113137071F0220F331F441FB395DAF30ED00C948F
S1131380540661307105A0E88A07B94630F49B0120
S1131390AC016627772788279078309621F0208340
S11313A031834283538308959F3F31F0915020F459
S11313B0879577956795B795880F911D969587952D
S11313C097F90895EF920F931F93CF93DF93E8015A
S11313D047FD02C034E001C034E1042E000C550B7B
S11313E057FF03C0519541955109E32E022F242F35
S11313F0AE010E94020ACE01DF91CF911F910F919D
S1131400EF900895A9E0B0E0E8E0FAE00C943A0C1B
S11314106A01122FB02E2BE3201720F0FF24F3943F
S1131420F00E02C02CE3F22E0F2D27E0AE014F5F29
S11314305F4F0E945C0BBC014981842F897081300D
S113144031F0E1FC06C0E0FE06C090E205C09DE27A
S113145003C09BE201C090E05E2D507143FF3CC08D
S1131460911102C083E001C084E0811718F4212F98
S1131470281B01C020E051110BC0F601822F30E27D
S1131480882319F031938150FBCFC20ED11C20E088
S1131490992329F0D6019C93F60131966F01C60178
S11314A00396E2FE0AC03EE4D6013C9341E4119661
S11314B04C93119712963C9306C03EE6F601308396
S11314C041E641833283FC01322F40E2332309F4A5
S11314D042C041933150FACF42FF44C0911102C03F
S11314E083E001C084E0811718F4212F281B01C078
S11314F020E051110BC0F601822F30E2882319F04D
S113150031938150FBCFC20ED11C20E0992329F0E6
S1131510D6019C93F60131966F01C6010396E2FE53
S11315200BC039E4D6013C933EE411963C931197E9
S113153036E412963C9307C039E6F60130833EE662
S1131540318336E63283FC01322F40E2332319F033
S113155041933150FBCFFC01E20FF11D10828EEF5D
S11315609FEFA6C021E030E0911102C020E030E0FE
S1131570161617061CF4FB01319602C0E1E0F0E0F8
S11315802E0F3F1FBB2021F0EB2DF0E0319602C05F
S1131590E0E0F0E02E0F3F1FE12FF0E02E173F07B1
S11315A01CF4121B212F01C020E08E2D887159F4E8
S11315B0F601822F30E2882319F031938150FBCF5A
S11315C0C20ED11C20E0992329F0D6019C93F60188
S11315D031966F0151110BC0F601822F90E38823DD
S11315E019F091938150FBCFC20ED11C20E00F2D36
S11315F0060F9A81342F307144FF03C0913309F4EC
S11316000150101624F4093018F008E001C001E07C
S1131610AB0177FF02C040E050E0FB01E41BF50B97
S1131620A1E0B0E0AC0FBD1FEA0FFB1F8EE2A82EB5
S11316304B01801A91080B2D10E0119501951109A9
S11316404F3FBFEF5B0721F4D601AC9211966D01B9
S1131650641775072CF08416950614F4818101C073
S113166080E3415051093196D60111967D0140170E
S1131670510724F0D6018C936701E2CF64177507F4
S113168039F4963320F4953319F4311101C081E310
S1131690F6018083F701822F90E2882319F0919359
S11316A08150FBCFF701E20FF11D108280E090E042
S11316B02996ECE00C94560C283008F027E03327E8
S11316C0DA01990F311D87FD91600096610571055E
S11316D039F432602E5F3D9330E32A95E1F70895A3
S11316E09F3F30F080387105610509F03C5F3C5F35
S11316F03D93913008F08068911DDF93CF931F9341
S11317000F93FF92EF92192F987F9695E92F969554
S11317109695E90FFF27E05DFE4F99273327EE24C6
S1131720FF24A701E70105900894079428F4360FD5
S1131730E71EF81E491F511D660F771F881F991F4A
S11317400694A1F70590079428F4E70EF81E491FA4
S1131750561FC11D770F881F991F661F0694A1F796
S11317600590079428F4F80E491F561FC71FD11D72
S1131770880F991F661F771F0694A1F70590079499
S113178020F4490F561FC71FD81F990F661F771FD4
S1131790881F0694A9F784911095177041F0D69587
S11317A0C79557954795F794E7941A95C1F7E6EDD1
S11317B0F0E0689415901591359165919591059097
S11317C07FE27395E118F10A430B560BC90BD0095C
S11317D0C0F7E10CF11E431F561FC91FD01D7EF434
S11317E0703311F48A95E6CFE894015030F0080F75
S11317F00AF40027021708F4202F2395022F7A33C6
S113180028F079E37D932A95E9F710C07D932A9512
S113181089F6069497956795379517951794E11867
S1131820F10A430B560BC90BD00998F023957E910E
S113183073957A3308F070E37C932013B8F77E91A4
S113184070617D9330F0839571E37D9370E32A9505
S1131850E1F71124EF90FF900F911F91CF91DF9149
S1131860992787FD909508952F923F924F925F920A
S11318706F927F928F929F92AF92BF92CF92DF929C
S1131880EF92FF920F931F93CF93DF93CDB7DEB701
S1131890CA1BDB0B0FB6F894DEBF0FBECDBF099495
S11318A02A88398848885F846E847D848C849B84EC
S11318B0AA84B984C884DF80EE80FD800C811B81FA
S11318C0AA81B981CE0FD11D0FB6F894DEBF0FBE29
S10D18D0CDBFED010895F894FFCF99
S11318DA54656D70657261743D00507265737375F9
S11118EA72653D00202A4320002068506100F2
S9030000FC
